{
  "contractName": "Students",
  "abi": [
    {
      "anonymous": false,
      "inputs": [
        {
          "indexed": true,
          "internalType": "address",
          "name": "owner",
          "type": "address"
        },
        {
          "indexed": true,
          "internalType": "address",
          "name": "provider",
          "type": "address"
        },
        {
          "indexed": false,
          "internalType": "string",
          "name": "header",
          "type": "string"
        },
        {
          "indexed": false,
          "internalType": "string",
          "name": "location",
          "type": "string"
        }
      ],
      "name": "ApproveRequest",
      "type": "event"
    },
    {
      "anonymous": false,
      "inputs": [
        {
          "indexed": true,
          "internalType": "address",
          "name": "provider",
          "type": "address"
        },
        {
          "indexed": true,
          "internalType": "address",
          "name": "reciever",
          "type": "address"
        },
        {
          "indexed": false,
          "internalType": "string",
          "name": "location",
          "type": "string"
        },
        {
          "indexed": false,
          "internalType": "string",
          "name": "header",
          "type": "string"
        }
      ],
      "name": "RequestApproval",
      "type": "event"
    },
    {
      "inputs": [
        {
          "internalType": "address",
          "name": "_reciever",
          "type": "address"
        },
        {
          "internalType": "string",
          "name": "_location",
          "type": "string"
        },
        {
          "internalType": "string",
          "name": "_header",
          "type": "string"
        }
      ],
      "name": "request",
      "outputs": [],
      "stateMutability": "nonpayable",
      "type": "function"
    },
    {
      "inputs": [
        {
          "internalType": "address",
          "name": "_provider",
          "type": "address"
        },
        {
          "internalType": "string",
          "name": "_header",
          "type": "string"
        },
        {
          "internalType": "string",
          "name": "_location",
          "type": "string"
        }
      ],
      "name": "approve",
      "outputs": [],
      "stateMutability": "nonpayable",
      "type": "function"
    }
  ],
  "bytecode": "0x608060405234801561001057600080fd5b50610483806100206000396000f3fe608060405234801561001057600080fd5b50600436106100365760003560e01c806347ad74ab1461003b5780637de3789114610057575b600080fd5b61005560048036038101906100509190610303565b610073565b005b610071600480360381019061006c9190610303565b6100df565b005b8273ffffffffffffffffffffffffffffffffffffffff163373ffffffffffffffffffffffffffffffffffffffff167f1bf77e0cc5f5cafb76b84e0f0cabb73832d7ee80c6122c5de01591bc99ddbfe784846040516100d2929190610416565b60405180910390a3505050565b8273ffffffffffffffffffffffffffffffffffffffff163373ffffffffffffffffffffffffffffffffffffffff167f7e11fcae3fa3f4b318fa01bb49933200a9cb7bb2879e4c30ed23196b042d9aaa848460405161013e929190610416565b60405180910390a3505050565b6000604051905090565b600080fd5b600080fd5b600073ffffffffffffffffffffffffffffffffffffffff82169050919050565b600061018a8261015f565b9050919050565b61019a8161017f565b81146101a557600080fd5b50565b6000813590506101b781610191565b92915050565b600080fd5b600080fd5b6000601f19601f8301169050919050565b7f4e487b7100000000000000000000000000000000000000000000000000000000600052604160045260246000fd5b610210826101c7565b810181811067ffffffffffffffff8211171561022f5761022e6101d8565b5b80604052505050565b600061024261014b565b905061024e8282610207565b919050565b600067ffffffffffffffff82111561026e5761026d6101d8565b5b610277826101c7565b9050602081019050919050565b82818337600083830152505050565b60006102a66102a184610253565b610238565b9050828152602081018484840111156102c2576102c16101c2565b5b6102cd848285610284565b509392505050565b600082601f8301126102ea576102e96101bd565b5b81356102fa848260208601610293565b91505092915050565b60008060006060848603121561031c5761031b610155565b5b600061032a868287016101a8565b935050602084013567ffffffffffffffff81111561034b5761034a61015a565b5b610357868287016102d5565b925050604084013567ffffffffffffffff8111156103785761037761015a565b5b610384868287016102d5565b9150509250925092565b600081519050919050565b600082825260208201905092915050565b60005b838110156103c85780820151818401526020810190506103ad565b838111156103d7576000848401525b50505050565b60006103e88261038e565b6103f28185610399565b93506104028185602086016103aa565b61040b816101c7565b840191505092915050565b6000604082019050818103600083015261043081856103dd565b9050818103602083015261044481846103dd565b9050939250505056fea2646970667358221220511bd3443eaef8248a5cc21728da392701d5c4e1252e199ebb7e1aa18c17380464736f6c634300080a0033",
  "immutableReferences": {},
  "source": "pragma solidity ^0.8.10;\n\ncontract Students {\n    // provider is the wallet which provides the file/information \n    // reciever is the wallet which recieves the request\n    // header contains information about the request\n    // owner is the wallet which the file will be linked to\n    // address is the physical address where the file lives on the IPFS\n    event RequestApproval(address indexed provider, address indexed reciever, string location, string header);\n    event ApproveRequest(address indexed owner, address indexed provider, string header, string location);\n    \n    function request(address _reciever, string memory _location, string memory _header) public {\n        emit RequestApproval(msg.sender, _reciever, _location, _header);\n    }\n\n    function approve(address _provider, string memory _header, string memory _location) public {\n        emit ApproveRequest(msg.sender, _provider, _header, _location);\n    }\n}\n\n/*\n    event Student(address indexed _from, string _first, string _last);\n\n    function add(string memory first, string memory last) public {\n        //students.push(x);\n        emit Student(msg.sender, first, last);\n    }\n\n    function get() public view returns (string[] memory) {\n        //return students;\n    }\n*/",
  "sourcePath": "/Users/zubin/Coding/student-mesh/contracts/Students.sol",
  "compiler": {
    "name": "solc",
    "version": "0.8.10+commit.fc410830.Emscripten.clang"
  },
  "schemaVersion": "3.4.3",
  "updatedAt": "2022-01-10T21:43:15.480Z",
  "networkType": "ethereum",
  "devdoc": {
    "kind": "dev",
    "methods": {},
    "version": 1
  },
  "userdoc": {
    "kind": "user",
    "methods": {},
    "version": 1
  }
}