{
  "contractName": "Students",
  "abi": [
    {
      "anonymous": false,
      "inputs": [
        {
          "indexed": true,
          "internalType": "address",
          "name": "owner",
          "type": "address"
        },
        {
          "indexed": true,
          "internalType": "address",
          "name": "provider",
          "type": "address"
        },
        {
          "indexed": false,
          "internalType": "string",
          "name": "header",
          "type": "string"
        },
        {
          "indexed": false,
          "internalType": "string",
          "name": "location",
          "type": "string"
        }
      ],
      "name": "Transcript",
      "type": "event"
    },
    {
      "inputs": [
        {
          "internalType": "address",
          "name": "_provider",
          "type": "address"
        },
        {
          "internalType": "string",
          "name": "_header",
          "type": "string"
        },
        {
          "internalType": "string",
          "name": "_location",
          "type": "string"
        }
      ],
      "name": "approveTranscript",
      "outputs": [],
      "stateMutability": "nonpayable",
      "type": "function"
    }
  ],
  "bytecode": "0x608060405234801561001057600080fd5b506103f0806100206000396000f3fe608060405234801561001057600080fd5b506004361061002b5760003560e01c806346118ef814610030575b600080fd5b61004a60048036038101906100459190610270565b61004c565b005b8273ffffffffffffffffffffffffffffffffffffffff163373ffffffffffffffffffffffffffffffffffffffff167f4372fde8052ad12d618e3dcff9bf232e4f908eb7bf0948875971e257a0bb36a984846040516100ab929190610383565b60405180910390a3505050565b6000604051905090565b600080fd5b600080fd5b600073ffffffffffffffffffffffffffffffffffffffff82169050919050565b60006100f7826100cc565b9050919050565b610107816100ec565b811461011257600080fd5b50565b600081359050610124816100fe565b92915050565b600080fd5b600080fd5b6000601f19601f8301169050919050565b7f4e487b7100000000000000000000000000000000000000000000000000000000600052604160045260246000fd5b61017d82610134565b810181811067ffffffffffffffff8211171561019c5761019b610145565b5b80604052505050565b60006101af6100b8565b90506101bb8282610174565b919050565b600067ffffffffffffffff8211156101db576101da610145565b5b6101e482610134565b9050602081019050919050565b82818337600083830152505050565b600061021361020e846101c0565b6101a5565b90508281526020810184848401111561022f5761022e61012f565b5b61023a8482856101f1565b509392505050565b600082601f8301126102575761025661012a565b5b8135610267848260208601610200565b91505092915050565b600080600060608486031215610289576102886100c2565b5b600061029786828701610115565b935050602084013567ffffffffffffffff8111156102b8576102b76100c7565b5b6102c486828701610242565b925050604084013567ffffffffffffffff8111156102e5576102e46100c7565b5b6102f186828701610242565b9150509250925092565b600081519050919050565b600082825260208201905092915050565b60005b8381101561033557808201518184015260208101905061031a565b83811115610344576000848401525b50505050565b6000610355826102fb565b61035f8185610306565b935061036f818560208601610317565b61037881610134565b840191505092915050565b6000604082019050818103600083015261039d818561034a565b905081810360208301526103b1818461034a565b9050939250505056fea26469706673582212201f8c5f2079b86f7fa773589fc64b6b2ee3f73aa2c834335dd54330613a94fa4364736f6c634300080a0033",
  "immutableReferences": {},
  "source": "pragma solidity ^0.8.10;\n\ncontract Students {\n    // provider is the wallet which provides the file/information \n    // reciever is the wallet which recieves the request\n    // header contains information about the request\n    // owner is the wallet which the file will be linked to\n    // address is the physical address where the file lives on the IPFS\n\n    event Transcript(address indexed owner, address indexed provider, string header, string location);\n\n    function approveTranscript(address _provider, string memory _header, string memory _location) public {\n        emit Transcript(msg.sender, _provider, _header, _location);\n    }\n\n    /*\n    event RequestApproval(address indexed provider, address indexed reciever, string location, string header);\n    event ApproveRequest(address indexed owner, address indexed provider, string header, string location, bytes32 request);\n    \n    function request(address _reciever, string memory _location, string memory _header) public {\n        emit RequestApproval(msg.sender, _reciever, _location, _header);\n    }\n\n    function approve(address _provider, string memory _header, string memory _location, bytes32 _request) public {\n        emit ApproveRequest(msg.sender, _provider, _header, _location, _request);\n    }\n    */\n\n\n}\n",
  "sourcePath": "/Users/zubin/Coding/student-mesh/contracts/Students.sol",
  "compiler": {
    "name": "solc",
    "version": "0.8.10+commit.fc410830.Emscripten.clang"
  },
  "schemaVersion": "3.4.3",
  "updatedAt": "2022-02-02T20:57:19.777Z",
  "networkType": "ethereum",
  "devdoc": {
    "kind": "dev",
    "methods": {},
    "version": 1
  },
  "userdoc": {
    "kind": "user",
    "methods": {},
    "version": 1
  }
}