{
  "contractName": "Students",
  "abi": [
    {
      "anonymous": false,
      "inputs": [
        {
          "indexed": true,
          "internalType": "address",
          "name": "owner",
          "type": "address"
        },
        {
          "indexed": true,
          "internalType": "address",
          "name": "provider",
          "type": "address"
        },
        {
          "indexed": false,
          "internalType": "string",
          "name": "header",
          "type": "string"
        },
        {
          "indexed": false,
          "internalType": "string",
          "name": "location",
          "type": "string"
        },
        {
          "indexed": false,
          "internalType": "bytes32",
          "name": "request",
          "type": "bytes32"
        }
      ],
      "name": "ApproveRequest",
      "type": "event"
    },
    {
      "anonymous": false,
      "inputs": [
        {
          "indexed": true,
          "internalType": "address",
          "name": "provider",
          "type": "address"
        },
        {
          "indexed": true,
          "internalType": "address",
          "name": "reciever",
          "type": "address"
        },
        {
          "indexed": false,
          "internalType": "string",
          "name": "location",
          "type": "string"
        },
        {
          "indexed": false,
          "internalType": "string",
          "name": "header",
          "type": "string"
        }
      ],
      "name": "RequestApproval",
      "type": "event"
    },
    {
      "inputs": [
        {
          "internalType": "address",
          "name": "_reciever",
          "type": "address"
        },
        {
          "internalType": "string",
          "name": "_location",
          "type": "string"
        },
        {
          "internalType": "string",
          "name": "_header",
          "type": "string"
        }
      ],
      "name": "request",
      "outputs": [],
      "stateMutability": "nonpayable",
      "type": "function"
    },
    {
      "inputs": [
        {
          "internalType": "address",
          "name": "_provider",
          "type": "address"
        },
        {
          "internalType": "string",
          "name": "_header",
          "type": "string"
        },
        {
          "internalType": "string",
          "name": "_location",
          "type": "string"
        },
        {
          "internalType": "bytes32",
          "name": "_request",
          "type": "bytes32"
        }
      ],
      "name": "approve",
      "outputs": [],
      "stateMutability": "nonpayable",
      "type": "function"
    }
  ],
  "bytecode": "0x608060405234801561001057600080fd5b506105af806100206000396000f3fe608060405234801561001057600080fd5b50600436106100365760003560e01c806347ad74ab1461003b578063bcadd90d14610057575b600080fd5b61005560048036038101906100509190610306565b610073565b005b610071600480360381019061006c91906103c7565b6100df565b005b8273ffffffffffffffffffffffffffffffffffffffff163373ffffffffffffffffffffffffffffffffffffffff167f1bf77e0cc5f5cafb76b84e0f0cabb73832d7ee80c6122c5de01591bc99ddbfe784846040516100d29291906104ee565b60405180910390a3505050565b8373ffffffffffffffffffffffffffffffffffffffff163373ffffffffffffffffffffffffffffffffffffffff167ff0a8615e7cb14d30c05144e1a2e20c8e2ba77146c62e035d2bb273cd7705bc7385858560405161014093929190610534565b60405180910390a350505050565b6000604051905090565b600080fd5b600080fd5b600073ffffffffffffffffffffffffffffffffffffffff82169050919050565b600061018d82610162565b9050919050565b61019d81610182565b81146101a857600080fd5b50565b6000813590506101ba81610194565b92915050565b600080fd5b600080fd5b6000601f19601f8301169050919050565b7f4e487b7100000000000000000000000000000000000000000000000000000000600052604160045260246000fd5b610213826101ca565b810181811067ffffffffffffffff82111715610232576102316101db565b5b80604052505050565b600061024561014e565b9050610251828261020a565b919050565b600067ffffffffffffffff821115610271576102706101db565b5b61027a826101ca565b9050602081019050919050565b82818337600083830152505050565b60006102a96102a484610256565b61023b565b9050828152602081018484840111156102c5576102c46101c5565b5b6102d0848285610287565b509392505050565b600082601f8301126102ed576102ec6101c0565b5b81356102fd848260208601610296565b91505092915050565b60008060006060848603121561031f5761031e610158565b5b600061032d868287016101ab565b935050602084013567ffffffffffffffff81111561034e5761034d61015d565b5b61035a868287016102d8565b925050604084013567ffffffffffffffff81111561037b5761037a61015d565b5b610387868287016102d8565b9150509250925092565b6000819050919050565b6103a481610391565b81146103af57600080fd5b50565b6000813590506103c18161039b565b92915050565b600080600080608085870312156103e1576103e0610158565b5b60006103ef878288016101ab565b945050602085013567ffffffffffffffff8111156104105761040f61015d565b5b61041c878288016102d8565b935050604085013567ffffffffffffffff81111561043d5761043c61015d565b5b610449878288016102d8565b925050606061045a878288016103b2565b91505092959194509250565b600081519050919050565b600082825260208201905092915050565b60005b838110156104a0578082015181840152602081019050610485565b838111156104af576000848401525b50505050565b60006104c082610466565b6104ca8185610471565b93506104da818560208601610482565b6104e3816101ca565b840191505092915050565b6000604082019050818103600083015261050881856104b5565b9050818103602083015261051c81846104b5565b90509392505050565b61052e81610391565b82525050565b6000606082019050818103600083015261054e81866104b5565b9050818103602083015261056281856104b5565b90506105716040830184610525565b94935050505056fea264697066735822122004057f0a48bc91a9ff53537b90ae57cf939aaf5a83a6632b524c503f6b89b3f564736f6c634300080a0033",
  "immutableReferences": {},
  "source": "pragma solidity ^0.8.10;\r\n\r\ncontract Students {\r\n    // provider is the wallet which provides the file/information \r\n    // reciever is the wallet which recieves the request\r\n    // header contains information about the request\r\n    // owner is the wallet which the file will be linked to\r\n    // address is the physical address where the file lives on the IPFS\r\n    event RequestApproval(address indexed provider, address indexed reciever, string location, string header);\r\n    event ApproveRequest(address indexed owner, address indexed provider, string header, string location, bytes32 request);\r\n    \r\n    function request(address _reciever, string memory _location, string memory _header) public {\r\n        emit RequestApproval(msg.sender, _reciever, _location, _header);\r\n    }\r\n\r\n    function approve(address _provider, string memory _header, string memory _location, bytes32 _request) public {\r\n        emit ApproveRequest(msg.sender, _provider, _header, _location, _request);\r\n    }\r\n}\r\n",
  "sourcePath": "C:\\Users\\zubin\\Coding\\student-mesh\\contracts\\Students.sol",
  "compiler": {
    "name": "solc",
    "version": "0.8.10+commit.fc410830.Emscripten.clang"
  },
  "schemaVersion": "3.4.3",
  "updatedAt": "2022-01-18T02:34:43.949Z",
  "networkType": "ethereum",
  "devdoc": {
    "kind": "dev",
    "methods": {},
    "version": 1
  },
  "userdoc": {
    "kind": "user",
    "methods": {},
    "version": 1
  }
}