{
  "contractName": "Students",
  "abi": [
    {
      "inputs": [
        {
          "internalType": "uint256",
          "name": "",
          "type": "uint256"
        }
      ],
      "name": "students",
      "outputs": [
        {
          "internalType": "string",
          "name": "",
          "type": "string"
        }
      ],
      "stateMutability": "view",
      "type": "function",
      "constant": true
    },
    {
      "inputs": [
        {
          "internalType": "string",
          "name": "x",
          "type": "string"
        }
      ],
      "name": "add",
      "outputs": [],
      "stateMutability": "nonpayable",
      "type": "function"
    },
    {
      "inputs": [
        {
          "internalType": "uint256",
          "name": "pos",
          "type": "uint256"
        }
      ],
      "name": "get",
      "outputs": [
        {
          "internalType": "string",
          "name": "",
          "type": "string"
        }
      ],
      "stateMutability": "view",
      "type": "function",
      "constant": true
    }
  ],
  "bytecode": "0x608060405234801561001057600080fd5b50610676806100206000396000f3fe608060405234801561001057600080fd5b50600436106100415760003560e01c806306ead22e146100465780639507d39a14610076578063b0c8f9dc146100a6575b600080fd5b610060600480360381019061005b919061034a565b6100c2565b60405161006d9190610410565b60405180910390f35b610090600480360381019061008b919061034a565b61016e565b60405161009d9190610410565b60405180910390f35b6100c060048036038101906100bb9190610567565b61021e565b005b600081815481106100d257600080fd5b9060005260206000200160009150905080546100ed906105df565b80601f0160208091040260200160405190810160405280929190818152602001828054610119906105df565b80156101665780601f1061013b57610100808354040283529160200191610166565b820191906000526020600020905b81548152906001019060200180831161014957829003601f168201915b505050505081565b60606000828154811061018457610183610611565b5b906000526020600020018054610199906105df565b80601f01602080910402602001604051908101604052809291908181526020018280546101c5906105df565b80156102125780601f106101e757610100808354040283529160200191610212565b820191906000526020600020905b8154815290600101906020018083116101f557829003601f168201915b50505050509050919050565b60008190806001815401808255809150506001900390600052602060002001600090919091909150908051906020019061025992919061025d565b5050565b828054610269906105df565b90600052602060002090601f01602090048101928261028b57600085556102d2565b82601f106102a457805160ff19168380011785556102d2565b828001600101855582156102d2579182015b828111156102d15782518255916020019190600101906102b6565b5b5090506102df91906102e3565b5090565b5b808211156102fc5760008160009055506001016102e4565b5090565b6000604051905090565b600080fd5b600080fd5b6000819050919050565b61032781610314565b811461033257600080fd5b50565b6000813590506103448161031e565b92915050565b6000602082840312156103605761035f61030a565b5b600061036e84828501610335565b91505092915050565b600081519050919050565b600082825260208201905092915050565b60005b838110156103b1578082015181840152602081019050610396565b838111156103c0576000848401525b50505050565b6000601f19601f8301169050919050565b60006103e282610377565b6103ec8185610382565b93506103fc818560208601610393565b610405816103c6565b840191505092915050565b6000602082019050818103600083015261042a81846103d7565b905092915050565b600080fd5b600080fd5b7f4e487b7100000000000000000000000000000000000000000000000000000000600052604160045260246000fd5b610474826103c6565b810181811067ffffffffffffffff821117156104935761049261043c565b5b80604052505050565b60006104a6610300565b90506104b2828261046b565b919050565b600067ffffffffffffffff8211156104d2576104d161043c565b5b6104db826103c6565b9050602081019050919050565b82818337600083830152505050565b600061050a610505846104b7565b61049c565b90508281526020810184848401111561052657610525610437565b5b6105318482856104e8565b509392505050565b600082601f83011261054e5761054d610432565b5b813561055e8482602086016104f7565b91505092915050565b60006020828403121561057d5761057c61030a565b5b600082013567ffffffffffffffff81111561059b5761059a61030f565b5b6105a784828501610539565b91505092915050565b7f4e487b7100000000000000000000000000000000000000000000000000000000600052602260045260246000fd5b600060028204905060018216806105f757607f821691505b6020821081141561060b5761060a6105b0565b5b50919050565b7f4e487b7100000000000000000000000000000000000000000000000000000000600052603260045260246000fdfea2646970667358221220be720f1edcf05cba6fc069d3d05e7fcb8b570808f4f21dfadae2dbe16f50923f64736f6c634300080a0033",
  "immutableReferences": {},
  "source": "pragma solidity ^0.8.10;\n\ncontract Students {\n    string[] public students;\n    function add(string memory x) public {\n        students.push(x);\n    }\n\n    function get(uint pos) public view returns (string memory) {\n        return students[pos];\n    }\n}",
  "sourcePath": "/Users/zubin/Coding/student-mesh/contracts/Students.sol",
  "compiler": {
    "name": "solc",
    "version": "0.8.10+commit.fc410830.Emscripten.clang"
  },
  "schemaVersion": "3.4.3",
  "updatedAt": "2021-12-04T03:17:39.436Z",
  "networkType": "ethereum",
  "devdoc": {
    "kind": "dev",
    "methods": {},
    "version": 1
  },
  "userdoc": {
    "kind": "user",
    "methods": {},
    "version": 1
  }
}