{
  "contractName": "Students",
  "abi": [
    {
      "anonymous": false,
      "inputs": [
        {
          "indexed": true,
          "internalType": "address",
          "name": "_from",
          "type": "address"
        },
        {
          "indexed": false,
          "internalType": "string",
          "name": "_value",
          "type": "string"
        }
      ],
      "name": "Student",
      "type": "event"
    },
    {
      "inputs": [
        {
          "internalType": "uint256",
          "name": "",
          "type": "uint256"
        }
      ],
      "name": "students",
      "outputs": [
        {
          "internalType": "string",
          "name": "",
          "type": "string"
        }
      ],
      "stateMutability": "view",
      "type": "function",
      "constant": true
    },
    {
      "inputs": [
        {
          "internalType": "string",
          "name": "x",
          "type": "string"
        }
      ],
      "name": "add",
      "outputs": [],
      "stateMutability": "nonpayable",
      "type": "function"
    },
    {
      "inputs": [],
      "name": "get",
      "outputs": [
        {
          "internalType": "string[]",
          "name": "",
          "type": "string[]"
        }
      ],
      "stateMutability": "view",
      "type": "function",
      "constant": true
    }
  ],
  "bytecode": "0x608060405234801561001057600080fd5b506107da806100206000396000f3fe608060405234801561001057600080fd5b50600436106100415760003560e01c806306ead22e146100465780636d4ce63c14610076578063b0c8f9dc14610094575b600080fd5b610060600480360381019061005b91906103af565b6100b0565b60405161006d9190610475565b60405180910390f35b61007e61015c565b60405161008b91906105a3565b60405180910390f35b6100ae60048036038101906100a991906106fa565b610235565b005b600081815481106100c057600080fd5b9060005260206000200160009150905080546100db90610772565b80601f016020809104026020016040519081016040528092919081815260200182805461010790610772565b80156101545780601f1061012957610100808354040283529160200191610154565b820191906000526020600020905b81548152906001019060200180831161013757829003601f168201915b505050505081565b60606000805480602002602001604051908101604052809291908181526020016000905b8282101561022c57838290600052602060002001805461019f90610772565b80601f01602080910402602001604051908101604052809291908181526020018280546101cb90610772565b80156102185780601f106101ed57610100808354040283529160200191610218565b820191906000526020600020905b8154815290600101906020018083116101fb57829003601f168201915b505050505081526020019060010190610180565b50505050905090565b6000819080600181540180825580915050600190039060005260206000200160009091909190915090805190602001906102709291906102c2565b503373ffffffffffffffffffffffffffffffffffffffff167f960f9aa1438532b95a36e96e60cc5ab12c9982dc42e52636484b1362fc524c3e826040516102b79190610475565b60405180910390a250565b8280546102ce90610772565b90600052602060002090601f0160209004810192826102f05760008555610337565b82601f1061030957805160ff1916838001178555610337565b82800160010185558215610337579182015b8281111561033657825182559160200191906001019061031b565b5b5090506103449190610348565b5090565b5b80821115610361576000816000905550600101610349565b5090565b6000604051905090565b600080fd5b600080fd5b6000819050919050565b61038c81610379565b811461039757600080fd5b50565b6000813590506103a981610383565b92915050565b6000602082840312156103c5576103c461036f565b5b60006103d38482850161039a565b91505092915050565b600081519050919050565b600082825260208201905092915050565b60005b838110156104165780820151818401526020810190506103fb565b83811115610425576000848401525b50505050565b6000601f19601f8301169050919050565b6000610447826103dc565b61045181856103e7565b93506104618185602086016103f8565b61046a8161042b565b840191505092915050565b6000602082019050818103600083015261048f818461043c565b905092915050565b600081519050919050565b600082825260208201905092915050565b6000819050602082019050919050565b600082825260208201905092915050565b60006104df826103dc565b6104e981856104c3565b93506104f98185602086016103f8565b6105028161042b565b840191505092915050565b600061051983836104d4565b905092915050565b6000602082019050919050565b600061053982610497565b61054381856104a2565b935083602082028501610555856104b3565b8060005b858110156105915784840389528151610572858261050d565b945061057d83610521565b925060208a01995050600181019050610559565b50829750879550505050505092915050565b600060208201905081810360008301526105bd818461052e565b905092915050565b600080fd5b600080fd5b7f4e487b7100000000000000000000000000000000000000000000000000000000600052604160045260246000fd5b6106078261042b565b810181811067ffffffffffffffff82111715610626576106256105cf565b5b80604052505050565b6000610639610365565b905061064582826105fe565b919050565b600067ffffffffffffffff821115610665576106646105cf565b5b61066e8261042b565b9050602081019050919050565b82818337600083830152505050565b600061069d6106988461064a565b61062f565b9050828152602081018484840111156106b9576106b86105ca565b5b6106c484828561067b565b509392505050565b600082601f8301126106e1576106e06105c5565b5b81356106f184826020860161068a565b91505092915050565b6000602082840312156107105761070f61036f565b5b600082013567ffffffffffffffff81111561072e5761072d610374565b5b61073a848285016106cc565b91505092915050565b7f4e487b7100000000000000000000000000000000000000000000000000000000600052602260045260246000fd5b6000600282049050600182168061078a57607f821691505b6020821081141561079e5761079d610743565b5b5091905056fea2646970667358221220393cf51d8f07c71cea4f1627a794eea2e0c0da83412f2aa91a2604fccf5707ed64736f6c634300080a0033",
  "immutableReferences": {},
  "source": "pragma solidity ^0.8.10;\n\ncontract Students {\n\n    event Student(address indexed _from, string _value);\n\n    string[] public students;\n    function add(string memory x) public {\n        students.push(x);\n        emit Student(msg.sender, x);\n    }\n\n    function get() public view returns (string[] memory) {\n        return students;\n    }\n}",
  "sourcePath": "/Users/zubin/Coding/student-mesh/contracts/Students.sol",
  "compiler": {
    "name": "solc",
    "version": "0.8.10+commit.fc410830.Emscripten.clang"
  },
  "schemaVersion": "3.4.3",
  "updatedAt": "2021-12-20T01:22:24.749Z",
  "networkType": "ethereum",
  "devdoc": {
    "kind": "dev",
    "methods": {},
    "version": 1
  },
  "userdoc": {
    "kind": "user",
    "methods": {},
    "version": 1
  }
}