{
  "contractName": "Students",
  "abi": [
    {
      "anonymous": false,
      "inputs": [
        {
          "indexed": true,
          "internalType": "address",
          "name": "_from",
          "type": "address"
        },
        {
          "indexed": false,
          "internalType": "string",
          "name": "_value",
          "type": "string"
        }
      ],
      "name": "Student",
      "type": "event"
    },
    {
      "inputs": [
        {
          "internalType": "uint256",
          "name": "",
          "type": "uint256"
        }
      ],
      "name": "students",
      "outputs": [
        {
          "internalType": "string",
          "name": "",
          "type": "string"
        }
      ],
      "stateMutability": "view",
      "type": "function",
      "constant": true
    },
    {
      "inputs": [
        {
          "internalType": "string",
          "name": "x",
          "type": "string"
        }
      ],
      "name": "add",
      "outputs": [],
      "stateMutability": "nonpayable",
      "type": "function"
    },
    {
      "inputs": [],
      "name": "get",
      "outputs": [
        {
          "internalType": "string",
          "name": "",
          "type": "string"
        }
      ],
      "stateMutability": "view",
      "type": "function",
      "constant": true
    }
  ],
  "bytecode": "0x608060405260405180606001604052806040518060400160405280600581526020017f5a7562696e00000000000000000000000000000000000000000000000000000081525081526020016040518060400160405280600681526020017f4f6c69766572000000000000000000000000000000000000000000000000000081525081526020016040518060400160405280600681526020017f4a756c69616e000000000000000000000000000000000000000000000000000081525081525060009060036100ce9291906100e1565b503480156100db57600080fd5b506102a9565b828054828255906000526020600020908101928215610130579160200282015b8281111561012f57825182908051906020019061011f929190610141565b5091602001919060010190610101565b5b50905061013d91906101c7565b5090565b82805461014d90610277565b90600052602060002090601f01602090048101928261016f57600085556101b6565b82601f1061018857805160ff19168380011785556101b6565b828001600101855582156101b6579182015b828111156101b557825182559160200191906001019061019a565b5b5090506101c391906101eb565b5090565b5b808211156101e757600081816101de9190610208565b506001016101c8565b5090565b5b808211156102045760008160009055506001016101ec565b5090565b50805461021490610277565b6000825580601f106102265750610245565b601f01602090049060005260206000209081019061024491906101eb565b5b50565b7f4e487b7100000000000000000000000000000000000000000000000000000000600052602260045260246000fd5b6000600282049050600182168061028f57607f821691505b602082108114156102a3576102a2610248565b5b50919050565b6106b0806102b86000396000f3fe608060405234801561001057600080fd5b50600436106100415760003560e01c806306ead22e146100465780636d4ce63c14610076578063b0c8f9dc14610094575b600080fd5b610060600480360381019061005b9190610384565b6100b0565b60405161006d919061044a565b60405180910390f35b61007e61015c565b60405161008b919061044a565b60405180910390f35b6100ae60048036038101906100a991906105a1565b61020a565b005b600081815481106100c057600080fd5b9060005260206000200160009150905080546100db90610619565b80601f016020809104026020016040519081016040528092919081815260200182805461010790610619565b80156101545780601f1061012957610100808354040283529160200191610154565b820191906000526020600020905b81548152906001019060200180831161013757829003601f168201915b505050505081565b6060600080815481106101725761017161064b565b5b90600052602060002001805461018790610619565b80601f01602080910402602001604051908101604052809291908181526020018280546101b390610619565b80156102005780601f106101d557610100808354040283529160200191610200565b820191906000526020600020905b8154815290600101906020018083116101e357829003601f168201915b5050505050905090565b600081908060018154018082558091505060019003906000526020600020016000909190919091509080519060200190610245929190610297565b503373ffffffffffffffffffffffffffffffffffffffff167f960f9aa1438532b95a36e96e60cc5ab12c9982dc42e52636484b1362fc524c3e8260405161028c919061044a565b60405180910390a250565b8280546102a390610619565b90600052602060002090601f0160209004810192826102c5576000855561030c565b82601f106102de57805160ff191683800117855561030c565b8280016001018555821561030c579182015b8281111561030b5782518255916020019190600101906102f0565b5b509050610319919061031d565b5090565b5b8082111561033657600081600090555060010161031e565b5090565b6000604051905090565b600080fd5b600080fd5b6000819050919050565b6103618161034e565b811461036c57600080fd5b50565b60008135905061037e81610358565b92915050565b60006020828403121561039a57610399610344565b5b60006103a88482850161036f565b91505092915050565b600081519050919050565b600082825260208201905092915050565b60005b838110156103eb5780820151818401526020810190506103d0565b838111156103fa576000848401525b50505050565b6000601f19601f8301169050919050565b600061041c826103b1565b61042681856103bc565b93506104368185602086016103cd565b61043f81610400565b840191505092915050565b600060208201905081810360008301526104648184610411565b905092915050565b600080fd5b600080fd5b7f4e487b7100000000000000000000000000000000000000000000000000000000600052604160045260246000fd5b6104ae82610400565b810181811067ffffffffffffffff821117156104cd576104cc610476565b5b80604052505050565b60006104e061033a565b90506104ec82826104a5565b919050565b600067ffffffffffffffff82111561050c5761050b610476565b5b61051582610400565b9050602081019050919050565b82818337600083830152505050565b600061054461053f846104f1565b6104d6565b9050828152602081018484840111156105605761055f610471565b5b61056b848285610522565b509392505050565b600082601f8301126105885761058761046c565b5b8135610598848260208601610531565b91505092915050565b6000602082840312156105b7576105b6610344565b5b600082013567ffffffffffffffff8111156105d5576105d4610349565b5b6105e184828501610573565b91505092915050565b7f4e487b7100000000000000000000000000000000000000000000000000000000600052602260045260246000fd5b6000600282049050600182168061063157607f821691505b60208210811415610645576106446105ea565b5b50919050565b7f4e487b7100000000000000000000000000000000000000000000000000000000600052603260045260246000fdfea26469706673582212205ec5c64cdd3f40cd8f700fdc758dc78c3309bbb638f3a2e1ef89103323b2889164736f6c634300080a0033",
  "immutableReferences": {},
  "source": "pragma solidity ^0.8.10;\n\ncontract Students {\n\n    event Student(address indexed _from, string _value);\n\n    string[] public students = [\"Zubin\", \"Oliver\", \"Julian\"];\n    function add(string memory x) public {\n        students.push(x);\n        emit Student(msg.sender, x);\n    }\n\n    function get() public view returns (string memory) {\n        return students[0];\n    }\n}",
  "sourcePath": "/Users/zubin/Coding/student-mesh/contracts/Students.sol",
  "compiler": {
    "name": "solc",
    "version": "0.8.10+commit.fc410830.Emscripten.clang"
  },
  "schemaVersion": "3.4.3",
  "updatedAt": "2021-12-12T02:55:44.560Z",
  "networkType": "ethereum",
  "devdoc": {
    "kind": "dev",
    "methods": {},
    "version": 1
  },
  "userdoc": {
    "kind": "user",
    "methods": {},
    "version": 1
  }
}