{
  "contractName": "Students",
  "abi": [
    {
      "anonymous": false,
      "inputs": [
        {
          "indexed": true,
          "internalType": "address",
          "name": "_from",
          "type": "address"
        },
        {
          "indexed": false,
          "internalType": "string",
          "name": "_first",
          "type": "string"
        },
        {
          "indexed": false,
          "internalType": "string",
          "name": "_last",
          "type": "string"
        }
      ],
      "name": "Student",
      "type": "event"
    },
    {
      "inputs": [
        {
          "internalType": "uint256",
          "name": "",
          "type": "uint256"
        }
      ],
      "name": "students",
      "outputs": [
        {
          "internalType": "string",
          "name": "",
          "type": "string"
        }
      ],
      "stateMutability": "view",
      "type": "function",
      "constant": true
    },
    {
      "inputs": [
        {
          "internalType": "string",
          "name": "first",
          "type": "string"
        },
        {
          "internalType": "string",
          "name": "last",
          "type": "string"
        }
      ],
      "name": "add",
      "outputs": [],
      "stateMutability": "nonpayable",
      "type": "function"
    },
    {
      "inputs": [],
      "name": "get",
      "outputs": [
        {
          "internalType": "string[]",
          "name": "",
          "type": "string[]"
        }
      ],
      "stateMutability": "view",
      "type": "function",
      "constant": true
    }
  ],
  "bytecode": "0x608060405234801561001057600080fd5b50610764806100206000396000f3fe608060405234801561001057600080fd5b50600436106100415760003560e01c806306ead22e146100465780636d4ce63c14610076578063ebdf86ca14610094575b600080fd5b610060600480360381019061005b91906102d3565b6100b0565b60405161006d9190610399565b60405180910390f35b61007e61015c565b60405161008b91906104c7565b60405180910390f35b6100ae60048036038101906100a9919061061e565b610235565b005b600081815481106100c057600080fd5b9060005260206000200160009150905080546100db906106c5565b80601f0160208091040260200160405190810160405280929190818152602001828054610107906106c5565b80156101545780601f1061012957610100808354040283529160200191610154565b820191906000526020600020905b81548152906001019060200180831161013757829003601f168201915b505050505081565b60606000805480602002602001604051908101604052809291908181526020016000905b8282101561022c57838290600052602060002001805461019f906106c5565b80601f01602080910402602001604051908101604052809291908181526020018280546101cb906106c5565b80156102185780601f106101ed57610100808354040283529160200191610218565b820191906000526020600020905b8154815290600101906020018083116101fb57829003601f168201915b505050505081526020019060010190610180565b50505050905090565b3373ffffffffffffffffffffffffffffffffffffffff167fda3cdd88d4e1ada0bc67370330b9eba6523849f773a7d3c49c189ce8dabe19dd838360405161027d9291906106f7565b60405180910390a25050565b6000604051905090565b600080fd5b600080fd5b6000819050919050565b6102b08161029d565b81146102bb57600080fd5b50565b6000813590506102cd816102a7565b92915050565b6000602082840312156102e9576102e8610293565b5b60006102f7848285016102be565b91505092915050565b600081519050919050565b600082825260208201905092915050565b60005b8381101561033a57808201518184015260208101905061031f565b83811115610349576000848401525b50505050565b6000601f19601f8301169050919050565b600061036b82610300565b610375818561030b565b935061038581856020860161031c565b61038e8161034f565b840191505092915050565b600060208201905081810360008301526103b38184610360565b905092915050565b600081519050919050565b600082825260208201905092915050565b6000819050602082019050919050565b600082825260208201905092915050565b600061040382610300565b61040d81856103e7565b935061041d81856020860161031c565b6104268161034f565b840191505092915050565b600061043d83836103f8565b905092915050565b6000602082019050919050565b600061045d826103bb565b61046781856103c6565b935083602082028501610479856103d7565b8060005b858110156104b557848403895281516104968582610431565b94506104a183610445565b925060208a0199505060018101905061047d565b50829750879550505050505092915050565b600060208201905081810360008301526104e18184610452565b905092915050565b600080fd5b600080fd5b7f4e487b7100000000000000000000000000000000000000000000000000000000600052604160045260246000fd5b61052b8261034f565b810181811067ffffffffffffffff8211171561054a576105496104f3565b5b80604052505050565b600061055d610289565b90506105698282610522565b919050565b600067ffffffffffffffff821115610589576105886104f3565b5b6105928261034f565b9050602081019050919050565b82818337600083830152505050565b60006105c16105bc8461056e565b610553565b9050828152602081018484840111156105dd576105dc6104ee565b5b6105e884828561059f565b509392505050565b600082601f830112610605576106046104e9565b5b81356106158482602086016105ae565b91505092915050565b6000806040838503121561063557610634610293565b5b600083013567ffffffffffffffff81111561065357610652610298565b5b61065f858286016105f0565b925050602083013567ffffffffffffffff8111156106805761067f610298565b5b61068c858286016105f0565b9150509250929050565b7f4e487b7100000000000000000000000000000000000000000000000000000000600052602260045260246000fd5b600060028204905060018216806106dd57607f821691505b602082108114156106f1576106f0610696565b5b50919050565b600060408201905081810360008301526107118185610360565b905081810360208301526107258184610360565b9050939250505056fea26469706673582212206148b05cceeffbbeb7b36bc450f71e42b73b88a643f3c86d2b41465e96584cd164736f6c634300080a0033",
  "immutableReferences": {},
  "source": "pragma solidity ^0.8.10;\r\n\r\ncontract Students {\r\n\r\n    event Student(address indexed _from, string _first, string _last);\r\n\r\n    string[] public students;\r\n    function add(string memory first, string memory last) public {\r\n        //students.push(x);\r\n        emit Student(msg.sender, first, last);\r\n    }\r\n\r\n    function get() public view returns (string[] memory) {\r\n        return students;\r\n    }\r\n}",
  "sourcePath": "C:\\Users\\zubin\\Coding\\student-mesh\\contracts\\Students.sol",
  "compiler": {
    "name": "solc",
    "version": "0.8.10+commit.fc410830.Emscripten.clang"
  },
  "schemaVersion": "3.4.3",
  "updatedAt": "2022-01-01T08:13:22.154Z",
  "networkType": "ethereum",
  "devdoc": {
    "kind": "dev",
    "methods": {},
    "version": 1
  },
  "userdoc": {
    "kind": "user",
    "methods": {},
    "version": 1
  }
}