{
  "contractName": "Students",
  "abi": [
    {
      "anonymous": false,
      "inputs": [
        {
          "indexed": true,
          "internalType": "address",
          "name": "owner",
          "type": "address"
        },
        {
          "indexed": true,
          "internalType": "address",
          "name": "provider",
          "type": "address"
        },
        {
          "indexed": false,
          "internalType": "string",
          "name": "header",
          "type": "string"
        },
        {
          "indexed": false,
          "internalType": "string",
          "name": "location",
          "type": "string"
        }
      ],
      "name": "ApproveRequest",
      "type": "event"
    },
    {
      "anonymous": false,
      "inputs": [
        {
          "indexed": true,
          "internalType": "address",
          "name": "provider",
          "type": "address"
        },
        {
          "indexed": true,
          "internalType": "address",
          "name": "reciever",
          "type": "address"
        },
        {
          "indexed": false,
          "internalType": "string",
          "name": "header",
          "type": "string"
        }
      ],
      "name": "RequestApproval",
      "type": "event"
    },
    {
      "inputs": [
        {
          "internalType": "address",
          "name": "_reciever",
          "type": "address"
        },
        {
          "internalType": "string",
          "name": "_header",
          "type": "string"
        }
      ],
      "name": "request",
      "outputs": [],
      "stateMutability": "nonpayable",
      "type": "function"
    },
    {
      "inputs": [
        {
          "internalType": "address",
          "name": "_provider",
          "type": "address"
        },
        {
          "internalType": "string",
          "name": "_header",
          "type": "string"
        },
        {
          "internalType": "string",
          "name": "_location",
          "type": "string"
        }
      ],
      "name": "approve",
      "outputs": [],
      "stateMutability": "nonpayable",
      "type": "function"
    }
  ],
  "bytecode": "0x608060405234801561001057600080fd5b506104fe806100206000396000f3fe608060405234801561001057600080fd5b50600436106100365760003560e01c80637de378911461003b578063d804c50314610057575b600080fd5b61005560048036038101906100509190610300565b610073565b005b610071600480360381019061006c919061038b565b6100df565b005b8273ffffffffffffffffffffffffffffffffffffffff163373ffffffffffffffffffffffffffffffffffffffff167f7e11fcae3fa3f4b318fa01bb49933200a9cb7bb2879e4c30ed23196b042d9aaa84846040516100d292919061046f565b60405180910390a3505050565b8173ffffffffffffffffffffffffffffffffffffffff163373ffffffffffffffffffffffffffffffffffffffff167f4ed6f5d3fb27bc009e2347b241955fc8da1b9bed5ed184f203f9c6484648ec698360405161013c91906104a6565b60405180910390a35050565b6000604051905090565b600080fd5b600080fd5b600073ffffffffffffffffffffffffffffffffffffffff82169050919050565b60006101878261015c565b9050919050565b6101978161017c565b81146101a257600080fd5b50565b6000813590506101b48161018e565b92915050565b600080fd5b600080fd5b6000601f19601f8301169050919050565b7f4e487b7100000000000000000000000000000000000000000000000000000000600052604160045260246000fd5b61020d826101c4565b810181811067ffffffffffffffff8211171561022c5761022b6101d5565b5b80604052505050565b600061023f610148565b905061024b8282610204565b919050565b600067ffffffffffffffff82111561026b5761026a6101d5565b5b610274826101c4565b9050602081019050919050565b82818337600083830152505050565b60006102a361029e84610250565b610235565b9050828152602081018484840111156102bf576102be6101bf565b5b6102ca848285610281565b509392505050565b600082601f8301126102e7576102e66101ba565b5b81356102f7848260208601610290565b91505092915050565b60008060006060848603121561031957610318610152565b5b6000610327868287016101a5565b935050602084013567ffffffffffffffff81111561034857610347610157565b5b610354868287016102d2565b925050604084013567ffffffffffffffff81111561037557610374610157565b5b610381868287016102d2565b9150509250925092565b600080604083850312156103a2576103a1610152565b5b60006103b0858286016101a5565b925050602083013567ffffffffffffffff8111156103d1576103d0610157565b5b6103dd858286016102d2565b9150509250929050565b600081519050919050565b600082825260208201905092915050565b60005b83811015610421578082015181840152602081019050610406565b83811115610430576000848401525b50505050565b6000610441826103e7565b61044b81856103f2565b935061045b818560208601610403565b610464816101c4565b840191505092915050565b600060408201905081810360008301526104898185610436565b9050818103602083015261049d8184610436565b90509392505050565b600060208201905081810360008301526104c08184610436565b90509291505056fea264697066735822122005fbd4c6a025b9c80c465d380b7d281b0b2b9da4c120923916c7e2543365985564736f6c634300080a0033",
  "immutableReferences": {},
  "source": "pragma solidity ^0.8.10;\n\ncontract Students {\n    // provider is the wallet which provides the file/information \n    // reciever is the wallet which recieves the request\n    // header contains information about the request\n    // owner is the wallet which the file will be linked to\n    // address is the physical address where the file lives on the IPFS\n    event RequestApproval(address indexed provider, address indexed reciever, string header);\n    event ApproveRequest(address indexed owner, address indexed provider, string header, string location);\n    \n    function request(address _reciever, string memory _header) public {\n        emit RequestApproval(msg.sender, _reciever, _header);\n    }\n\n    function approve(address _provider, string memory _header, string memory _location) public {\n        emit ApproveRequest(msg.sender, _provider, _header, _location);\n    }\n}\n\n/*\n    event Student(address indexed _from, string _first, string _last);\n\n    function add(string memory first, string memory last) public {\n        //students.push(x);\n        emit Student(msg.sender, first, last);\n    }\n\n    function get() public view returns (string[] memory) {\n        //return students;\n    }\n*/",
  "sourcePath": "/Users/zubin/Coding/student-mesh/contracts/Students.sol",
  "compiler": {
    "name": "solc",
    "version": "0.8.10+commit.fc410830.Emscripten.clang"
  },
  "schemaVersion": "3.4.3",
  "updatedAt": "2022-01-04T21:21:40.563Z",
  "networkType": "ethereum",
  "devdoc": {
    "kind": "dev",
    "methods": {},
    "version": 1
  },
  "userdoc": {
    "kind": "user",
    "methods": {},
    "version": 1
  }
}