{
  "contractName": "Students",
  "abi": [
    {
      "anonymous": false,
      "inputs": [
        {
          "indexed": true,
          "internalType": "address",
          "name": "_from",
          "type": "address"
        },
        {
          "indexed": false,
          "internalType": "string",
          "name": "_value",
          "type": "string"
        }
      ],
      "name": "Student",
      "type": "event"
    },
    {
      "inputs": [
        {
          "internalType": "uint256",
          "name": "",
          "type": "uint256"
        }
      ],
      "name": "students",
      "outputs": [
        {
          "internalType": "string",
          "name": "",
          "type": "string"
        }
      ],
      "stateMutability": "view",
      "type": "function",
      "constant": true
    },
    {
      "inputs": [
        {
          "internalType": "string",
          "name": "x",
          "type": "string"
        }
      ],
      "name": "add",
      "outputs": [],
      "stateMutability": "nonpayable",
      "type": "function"
    },
    {
      "inputs": [
        {
          "internalType": "uint256",
          "name": "pos",
          "type": "uint256"
        }
      ],
      "name": "get",
      "outputs": [
        {
          "internalType": "string",
          "name": "",
          "type": "string"
        }
      ],
      "stateMutability": "view",
      "type": "function",
      "constant": true
    }
  ],
  "bytecode": "0x608060405234801561001057600080fd5b506106c4806100206000396000f3fe608060405234801561001057600080fd5b50600436106100415760003560e01c806306ead22e146100465780639507d39a14610076578063b0c8f9dc146100a6575b600080fd5b610060600480360381019061005b9190610398565b6100c2565b60405161006d919061045e565b60405180910390f35b610090600480360381019061008b9190610398565b61016e565b60405161009d919061045e565b60405180910390f35b6100c060048036038101906100bb91906105b5565b61021e565b005b600081815481106100d257600080fd5b9060005260206000200160009150905080546100ed9061062d565b80601f01602080910402602001604051908101604052809291908181526020018280546101199061062d565b80156101665780601f1061013b57610100808354040283529160200191610166565b820191906000526020600020905b81548152906001019060200180831161014957829003601f168201915b505050505081565b6060600082815481106101845761018361065f565b5b9060005260206000200180546101999061062d565b80601f01602080910402602001604051908101604052809291908181526020018280546101c59061062d565b80156102125780601f106101e757610100808354040283529160200191610212565b820191906000526020600020905b8154815290600101906020018083116101f557829003601f168201915b50505050509050919050565b6000819080600181540180825580915050600190039060005260206000200160009091909190915090805190602001906102599291906102ab565b503373ffffffffffffffffffffffffffffffffffffffff167f960f9aa1438532b95a36e96e60cc5ab12c9982dc42e52636484b1362fc524c3e826040516102a0919061045e565b60405180910390a250565b8280546102b79061062d565b90600052602060002090601f0160209004810192826102d95760008555610320565b82601f106102f257805160ff1916838001178555610320565b82800160010185558215610320579182015b8281111561031f578251825591602001919060010190610304565b5b50905061032d9190610331565b5090565b5b8082111561034a576000816000905550600101610332565b5090565b6000604051905090565b600080fd5b600080fd5b6000819050919050565b61037581610362565b811461038057600080fd5b50565b6000813590506103928161036c565b92915050565b6000602082840312156103ae576103ad610358565b5b60006103bc84828501610383565b91505092915050565b600081519050919050565b600082825260208201905092915050565b60005b838110156103ff5780820151818401526020810190506103e4565b8381111561040e576000848401525b50505050565b6000601f19601f8301169050919050565b6000610430826103c5565b61043a81856103d0565b935061044a8185602086016103e1565b61045381610414565b840191505092915050565b600060208201905081810360008301526104788184610425565b905092915050565b600080fd5b600080fd5b7f4e487b7100000000000000000000000000000000000000000000000000000000600052604160045260246000fd5b6104c282610414565b810181811067ffffffffffffffff821117156104e1576104e061048a565b5b80604052505050565b60006104f461034e565b905061050082826104b9565b919050565b600067ffffffffffffffff8211156105205761051f61048a565b5b61052982610414565b9050602081019050919050565b82818337600083830152505050565b600061055861055384610505565b6104ea565b90508281526020810184848401111561057457610573610485565b5b61057f848285610536565b509392505050565b600082601f83011261059c5761059b610480565b5b81356105ac848260208601610545565b91505092915050565b6000602082840312156105cb576105ca610358565b5b600082013567ffffffffffffffff8111156105e9576105e861035d565b5b6105f584828501610587565b91505092915050565b7f4e487b7100000000000000000000000000000000000000000000000000000000600052602260045260246000fd5b6000600282049050600182168061064557607f821691505b60208210811415610659576106586105fe565b5b50919050565b7f4e487b7100000000000000000000000000000000000000000000000000000000600052603260045260246000fdfea2646970667358221220022bf863bcc76dca3e938060de28497187a9ceff15cbe0cc834cc61534e162f764736f6c634300080a0033",
  "immutableReferences": {},
  "source": "pragma solidity ^0.8.10;\r\n\r\ncontract Students {\r\n\r\n    event Student(address indexed _from, string _value);\r\n\r\n    string[] public students;\r\n    function add(string memory x) public {\r\n        students.push(x);\r\n        emit Student(msg.sender, x);\r\n    }\r\n\r\n    function get(uint pos) public view returns (string memory) {\r\n        return students[pos];\r\n    }\r\n}",
  "sourcePath": "C:\\Users\\zubin\\Coding\\student-mesh\\contracts\\Students.sol",
  "compiler": {
    "name": "solc",
    "version": "0.8.10+commit.fc410830.Emscripten.clang"
  },
  "schemaVersion": "3.4.3",
  "updatedAt": "2021-12-10T06:45:51.440Z",
  "networkType": "ethereum",
  "devdoc": {
    "kind": "dev",
    "methods": {},
    "version": 1
  },
  "userdoc": {
    "kind": "user",
    "methods": {},
    "version": 1
  }
}